:100000000C945B010C94F40D0C94CD0D0C948301B5
:100010000C9483010C9483010C9483010C94830150
:100020000C9483010C9483010C9483010C94830140
:100030000C9483010C9483010C9483010C94830130
:100040000C94830D0C9483010C94410E0C941B0EA4
:100050000C9483010C9483010C9483010C94830110
:100060000C9483010C948301496E76616C69642061
:10007000636F6D6D616E642075736167652C2072AE
:100080006566657220746F202241542B48454C50A0
:100090002200476F20746F2068747470733A2F2F9A
:1000A0006769746875622E636F6D2F576174746C25
:1000B00065466F78786F2F536C697070794D6573F2
:1000C000682F747265652F536C697070794D657314
:1000D00068563420666F72206D6F726520696E6697
:1000E0006F005B44656275675D2046696E69736881
:1000F0006564207472616E736D697474696E672EC5
:10010000005B44656275675D2053656E64696E6768
:1001100020646174612073747265616D206F6E205C
:100120006368616E6E656C3A20005B44656275675A
:100130005D205472616E736D6974696F6E207374A3
:100140006172742E2E2E00466F722068656C7020CE
:1001500074797065202241542B48454C50222E0062
:100160000A0052656164792C20596F7572206164B0
:1001700064726573732069733A2000546865204C7B
:100180006F5261206D6F64756C65206661696C6586
:100190006420746F20696E697469616C697A652185
:1001A00000536C69707079204D6573682069732005
:1001B0007374617274696E672E2E005B446562759C
:1001C000675D205061636B6574206E6F7420666F8D
:1001D00072206D652C20726562726F616463617359
:1001E00074696E672E2E005B44656275675D2050F2
:1001F00061636B657420697320612062726F616452
:10020000636173742C20726562726F6164636173E1
:1002100074696E672E2E005B44656275675D204FC2
:100220006C64207061636B65742E005B446562755D
:10023000675D20496E636F6D696E67207061636BE7
:1002400065742E2E00000000080002010000030467
:100250000700000000000000002C002C002C002CE7
:10026000002C002E002C002E0041542B4D455353E2
:100270004147453D0000000000250028002B0000FC
:10028000000000240027002A0004040404040404DD
:100290000402020202020203030303030301020435
:1002A00008102040800102040810200102040810F8
:1002B0002000730EE01311241FBECFEFD8E0DEBF85
:1002C000CDBF11E0A0E0B1E0EEE8F5E302C005909B
:1002D0000D92AC3FB107D9F724E0ACEFB1E001C01B
:1002E0001D92A432B207E1F711E0CAE5D1E004C0E3
:1002F0002197FE010E949118C935D107C9F70E94C4
:10030000300F0C94BA1A0C94000090E0FC01E356F4
:10031000FD4F249187579D4FFC018491882399F0CC
:1003200090E0880F991FFC01E158FD4FA591B49111
:10033000FC01EB58FD4F859194918FB7F894EC91A7
:10034000E22BEC938FBF08952091090430910A04A9
:100350008217930738F42091050430910604211583
:10036000310529F41092190289E192E00895820F73
:10037000931F089590E0FC01EB5BFD4F2491FC017D
:10038000E356FD4F3491FC01E757FD4FE491EE2316
:10039000C9F0222339F0233001F1A8F4213019F1FA
:1003A000223029F1F0E0EE0FFF1FEB58FD4FA59131
:1003B000B4918FB7F894EC91611126C030953E232B
:1003C0003C938FBF08952730A9F02830C9F024301E
:1003D00049F7809180008F7D03C0809180008F77E6
:1003E00080938000DFCF84B58F7784BDDBCF84B569
:1003F0008F7DFBCF8091B0008F778093B000D2CFFC
:100400008091B0008F7DF9CF3E2BDACF3FB7F894C3
:100410008091150290911602A0911702B0911802D6
:1004200026B5A89B05C02F3F19F00196A11DB11D4F
:100430003FBFBA2FA92F982F8827BC01CD01620F8B
:10044000711D811D911D42E0660F771F881F991F46
:100450004A95D1F708958F929F92AF92BF92CF9213
:10046000DF92EF92FF926B017C010E9406024B012A
:100470005C01C114D104E104F104B9F00E94060248
:10048000681979098A099B09683E734081059105BD
:1004900080F321E0C21AD108E108F10888EE880E45
:1004A00083E0981EA11CB11CE4CFFF90EF90DF9079
:1004B000CF90BF90AF909F908F900895089508952A
:1004C0000895AF92BF92CF92DF92EF92FF920F9377
:1004D0001F93CF93DF936C017B018B01040F151FDA
:1004E000EB015E01AE18BF08C017D10759F0699142
:1004F000D601ED91FC910190F081E02DC6010995A6
:10050000892B79F7C501DF91CF911F910F91FF9052
:10051000EF90DF90CF90BF90AF900895FC01538D86
:10052000448D252F30E0842F90E0821B930B5417CD
:1005300010F0CF96089501970895FC01918D828D5A
:10054000981761F0A28DAE0FBF2FB11D5D968C91F3
:10055000928D9F5F9F73928F90E008958FEF9FEF32
:100560000895FC01918D828D981731F0828DE80FEE
:10057000F11D858D90E008958FEF9FEF0895FC01A8
:10058000918D228D892F90E0805C9F4F821B910975
:100590008F739927089588E393E00E94BF0221E0BA
:1005A000892B09F420E0822F089580E090E0892BC8
:1005B00029F00E94CB0281110C9400000895FC01E7
:1005C000A48DA80FB92FB11DA35ABF4F2C91848DB4
:1005D00090E001968F739927848FA689B7892C9311
:1005E000A089B1898C91837080648C93938D848D64
:1005F000981306C00288F389E02D80818F7D808367
:100600000895EF92FF920F931F93CF93DF93EC0126
:1006100081E0888F9B8D8C8D98131AC0E889F989A9
:10062000808185FF15C09FB7F894EE89FF896083AC
:10063000E889F98980818370806480839FBF81E02D
:1006400090E0DF91CF911F910F91FF90EF9008956F
:10065000F62E0B8D10E00F5F1F4F0F731127E02E4A
:100660008C8D8E110CC00FB607FCFACFE889F98982
:10067000808185FFF5CFCE010E94DF02F1CFEB8DA7
:10068000EC0FFD2FF11DE35AFF4FF0829FB7F89456
:100690000B8FEA89FB8980818062CFCF0F931F93F4
:1006A000CF93DF938C01D0E0C0E0F801EC0FFD1F89
:1006B0006491662341F088E393E00E940103892B53
:1006C00011F02196F2CFCE01DF91CF911F910F91C2
:1006D0000895CF93DF93EC01888D8823B9F0AA8920
:1006E000BB89E889F9898C9185FD03C0808186FDED
:1006F0000DC00FB607FCF7CF8C9185FFF2CF80813C
:1007000085FFEDCFCE010E94DF02E9CFDF91CF91CF
:1007100008950F931F93CF93DF93EC01062F142FAF
:1007200060E088890E94BA019C858D859CBD8DBD45
:100730000EBD00000DB407FEFDCF8EB51EBD00003E
:100740000DB407FEFDCF1EB561E088890E94BA0195
:10075000812FDF91CF911F910F910895AF92BF929A
:10076000CF92DF92EF92FF920F931F93CF93DF937D
:100770006093F5037093F6038093F7039093F80367
:100780006B017C01FF0CCC08DC2C76019B01AC01D9
:100790006C2D7C2D8C2D9C2D03E10E945B18A12CCF
:1007A000E8E4BE2EF8EECF2EDD24D394E12CF12C1C
:1007B00000E010E00E94FE17F22EB32E142FD52F6A
:1007C000C62FC72ED82EE92E00E10E947618422FA0
:1007D00066E88FED93E00E9489032F2D3B2D412F7A
:1007E0005D2F6C2F7C2D8D2D9E2D08E00E9476189C
:1007F000422F67E88FED93E00E9489034F2D68E850
:100800008FED93E0DF91CF911F910F91FF90EF90CB
:10081000DF90CF90BF90AF900C94890340E00C9490
:100820008903CF92DF92EF92FF92CF93DF936DE136
:100830008FED93E00E940E0490E034E0959587954B
:100840003A95E1F78A3091050CF042C0FC01EE0FB9
:10085000FF1FE80FF91FE45BFE4FC080D180E280EC
:100860000E2C000CFF086EE18FED93E00E940E0449
:10087000D82F66E28FED93E00E940E04C82FD29528
:10088000DF7021E030E040E050E004C0220F331F71
:10089000441F551FDA95D2F7C701B6010E944316CF
:1008A00068EE73E080E090E00E944316213131054C
:1008B0004105510594F04C2F486066EA8FED93E0B6
:1008C000DF91CF91FF90EF90DF90CF900C94890350
:1008D000CC24CA94DC2C7601C6CF4C2F477FEDCFB9
:1008E00062E18FED93E00E940E0483FFF9CF48E0B0
:1008F00062E98FED93E00C9489031092FC0310924F
:10090000FB036DE18FED93E00E940E04482F4E7FB4
:100910006DE98FED93E00C9489030F931F93CF93B0
:10092000DF93EC01E881F9810084F185E02D0995E0
:10093000892BB1F06DE0CE010E940E04082F60E01B
:10094000CE010E940E04182F402F6DE8CE010E94A8
:100950008903812F90E0DF91CF911F910F9108952E
:100960008FEF9FEFF8CFCF93DF93EC01E881F98110
:100970000084F185E02D0995892B69F08A8D9B8D86
:1009800001969B8F8A8F60E0CE010E940E0490E05A
:10099000DF91CF9108958FEF9FEFFACFCF93DF9341
:1009A000EC0163E10E940E0490E02A8D3B8D821BD6
:1009B000930BDF91CF910895AF92BF92CF92DF92C8
:1009C000FF920F931F93CF93DF936C015B01EA01BA
:1009D00062E20E940E04F82E90E09C012C0F3D1F55
:1009E0002F3F310529F020F0CFEFD0E0C81BD90B05
:1009F0008501AC0EBD1E0A151B0541F0F8014191A1
:100A00008F0160E8C6010E948903F5CF4C2F4F0D7E
:100A100062EAC6010E948903CE01DF91CF911F9146
:100A20000F91FF90DF90CF90BF90AF900895CF933C
:100A3000DF931F92CDB7DEB76983DC01ED91FC91A6
:100A40000280F381E02D41E050E0BE016F5F7F4FF7
:100A500009950F90DF91CF91089590E080E008957F
:100A60002091FF01E22FF0E0EE0FFF1FEF5FFD4F3F
:100A700091838083283010F01092FF01089561E087
:100A80008FED93E00E940E048370833021F162E1C8
:100A90008FED93E00E940E0483FF06C048E062E9F8
:100AA0008FED93E00E94890341E861E88FED93E0C8
:100AB0000E9489030E947D0440E06DE88FED93E081
:100AC0000E94890340E062EA8FED93E00E9489036F
:100AD00081E090E0089590E080E00895CF93DF9367
:100AE00062E18FED93E00E940E04C82F0E947D0406
:100AF0004C2F62E98FED93E00E948903C6FF29C065
:100B0000C5FD27C01092FA031092F9038091FB03F0
:100B10009091FC0362E2892B09F463E18FED93E08D
:100B20000E940E04C82FD0E060E18FED93E00E9498
:100B30000E04482F6DE88FED93E00E94890341E891
:100B400061E88FED93E00E948903CE01DF91CF91A0
:100B5000089561E08FED93E00E940E04863861F005
:100B600040E06DE88FED93E00E94890346E861E87C
:100B70008FED93E00E948903D0E0C0E0E6CFFB0157
:100B800001900020E9F73197AF01461B570BDC01BC
:100B9000ED91FC910280F381E02D0994CF93DF93D6
:100BA0000E944E03EC016EE871E088E393E00E943E
:100BB000BF058C0F9D1FDF91CF91089582E990E0D2
:100BC0000E94CE0581E0089588E690E00E94CE055F
:100BD00080E00895CF93DF93FC01448155816081CB
:100BE000718188E393E00E946102EC016EE871E09C
:100BF00088E393E00E94BF058C0F9D1FDF91CF918A
:100C000008958F929F92AF92BF920F931F93CF93AD
:100C1000DF93CDB7DEB7A1970FB6F894DEBF0FBE56
:100C2000CDBF19A2423008F44AE08E010F5D1F4F7C
:100C3000842E912CB12CA12CA50194010E94AC16FC
:100C4000E62FB901CA01EA3004F5E05DD801EE9360
:100C50008D01232B242B252B79F790E080E0109732
:100C600029F0BD0188E393E00E94BF05A1960FB66D
:100C7000F894DEBF0FBECDBFDF91CF911F910F91D2
:100C8000BF90AF909F908F900895E95CDFCF4F9217
:100C90005F926F927F928F929F92AF92BF92CF920C
:100CA000DF92EF92FF920F931F93CF93DF93CDB715
:100CB000DEB728970FB6F894DEBF0FBECDBF89E62A
:100CC00092E00E944E038091AE029091AF0220917B
:100CD000B0023091B1023D832E839F8388878E01BD
:100CE0000B5F1F4FF12CE12CF80161918F0170E037
:100CF00090E080E04AE00E940106FFEFEF1AFF0A51
:100D000024E0E216F10409F0DDC085E692E00E94DD
:100D10004E038091B2029091B3022091B4023091BF
:100D2000B50239832A839B838C838E010F5F1F4F0B
:100D3000F12CE12CF80161918F0170E090E080E0EE
:100D40004AE00E940106FFEFEF1AFF0A24E0E216D4
:100D5000F10409F0BCC081E692E00E944E0360916C
:100D6000B6027091B70290E080E04AE00E9401066E
:100D70008FE592E00E944E036091AD0270E090E03A
:100D800080E04AE00E9401068DE592E00E944E0359
:100D900068EB72E088E393E00E94BF058BE592E088
:100DA0000E944E036AE18FED93E00E940E04E82E4C
:100DB000F12C6091F5037091F6038091F703909107
:100DC000F8030E9426152AEE36E54AEF5DE40E94FC
:100DD0001F1587FD81C08DE990E0F701E81BF90B35
:100DE0006F010F2E000CEE08FF08F7FF78C06DE2D0
:100DF00088E393E00E94010366277727CB016C19F3
:100E00007D098E099F094AE00E94010689E592E06A
:100E10000E944E0369E18FED93E00E940E04682F5B
:100E2000880F770B880B990B0E94261520E030E085
:100E300040E85EE30E9485156B017C014B015C017B
:100E4000AC019B010E94F01761E971E081111AC0A9
:100E500026013701E89477F82FEF3FEF4FE75FE780
:100E6000C301B2010E94F01781113DC02FEF3FEF87
:100E70004FE75FE7C301B2010E941F1518169CF5EA
:100E800065E971E088E393E00E94BF056EE871E0D8
:100E900088E393E028960FB6F894DEBF0FBECDBF6F
:100EA000DF91CF911F910F91FF90EF90DF90CF9046
:100EB000BF90AF909F908F907F906F905F904F907A
:100EC0000C94BF0587E692E00E944E030DCF83E6A7
:100ED00092E00E944E032ECF84EA90E07ECF4AE05B
:100EE000C701B60191CF2FEF3FEF4FE75FE4C70196
:100EF000B6010E94EB1718161CF469E971E0C2CF25
:100F00002FEF3FEF4FE75FECC701B6010E941F15BF
:100F100087FDF3CF20E030E0A901C701B6010E94B0
:100F20001F1587FF0BC06DE288E393E00E94010369
:100F300046015701B7FAB094B7F8B0941AE060E0F0
:100F400070E080E09FE320E030E040E251E40E9466
:100F50004A171150C1F7A50194010E94DE166B01DA
:100F60007C010E94BC174B015C010E9424159B016F
:100F7000AC01C701B6010E94DD166B017C014AE09D
:100F8000C501B4010E9401066EE288E393E00E946D
:100F900001031BE0115009F479CF20E030E040E27A
:100FA00051E4C701B6010E9485154B015C010E9406
:100FB000BC176B01F12CE12C4AE0C701B6010E947D
:100FC0000106C701B6010E9424159B01AC01C501B1
:100FD000B4010E94DD166B017C01DCCF0F931F93DF
:100FE000CF93DF93EC010E94BF058C016EE871E0A6
:100FF000CE010E94BF05800F911FDF91CF911F91FD
:101000000F910895EF92FF921F93CF93DF93CDB787
:10101000DEB7C651D1400FB6F894DEBF0FBECDBFCC
:101020007C010E94341422E030E040E050E00E9455
:1010300043169B01AC01A8ECB0E00E9462160E942E
:101040002B020E94341427E030E040E050E00E9480
:10105000431611E0160F8AE291E00E94CE05ECEFF4
:10106000F1E01083D70119968D919C919283818331
:101070000E943F0564E08FED93E00E94170560E059
:101080008FED93E00E9417058091FC019091FD0186
:10109000A091FE0189839A83AB8343E050E0BE01B7
:1010A0006F5F7F4F8FED93E00E94DC0443E861E8BF
:1010B0008FED93E00E9489030E94700481E091E02B
:1010C0000E944E03612F70E090E080E04AE00E94B1
:1010D00001066EE871E088E393E00E94BF05B4E08A
:1010E0001B9FF0011124E45DFE4F608171818281BC
:1010F00093810E94AE0368EC70E080E090E00E9473
:101100002B020E943F0564E08FED93E00E941705DB
:1011100061E08FED93E00E9417058BE8F701DE0197
:10112000A457BF4F01900D928A95E1F78BE8FE011D
:10113000E457FF4FDE01119601900D928A95E1F779
:101140004BE850E0BE016F5F7F4F8FED93E00E9450
:10115000DC0443E861E88FED93E00E9489030E947C
:10116000700460E07DE089E996E30E94AE0382EEC0
:1011700090E00E94CE05CA5EDE4F0FB6F894DEBF47
:101180000FBECDBFDF91CF911F91FF90EF900895DB
:10119000FC0180819181009711F00C948C1460E027
:1011A00070E0CB0108950F931F93CF93DF938C01D1
:1011B000EB01FC01808191810097E1F068817981E8
:1011C00061157105A9F0428153812C813D8142173F
:1011D000530770F00E948B1A8C819D81F8019583D2
:1011E00084831D821C82DF91CF911F910F910895FE
:1011F0000E94331988819981F801918380838A81C3
:101200009B81938382838C819D81958384831982C2
:1012100018821B821A82E5CFCF93DF93EC0188817D
:101220009981009711F00E943319198218821D824A
:101230001C821B821A82DF91CF910895FC0180816C
:101240009181009711F00C94331908950F931F9317
:10125000CF93DF93EC0188819981009759F02A811F
:101260003B812617370730F081E0DF91CF911F9146
:101270000F9108958B016F5F7F4F0E94BC190097FB
:1012800059F0998388831B830A832C813D81232B0A
:1012900059F7FC011082E8CF80E0E7CFEF92FF9290
:1012A0000F931F93CF93DF93EC017B011982188278
:1012B0001B821A821D821C82FB0101900020E9F72B
:1012C00031978F01061B170BB8010E942609811167
:1012D00009C0CE01DF91CF911F910F91FF90EF9048
:1012E0000C940C091D830C83B70188819981DF91CF
:1012F000CF911F910F91FF90EF900C948B1AEF926A
:10130000FF920F931F93CF93DF938C017B01EB012F
:1013100009900020E9F72197C61BD70BBE010E9458
:101320002609811109C0C801DF91CF911F910F914A
:10133000FF90EF900C940C09F801D583C483B7019A
:1013400080819181DF91CF911F910F91FF90EF905C
:101350000C948B1AAF92BF92CF92DF92EF92FF92D2
:101360000F931F93CF93DF936C015B017A01890187
:101370002417350720F48F2D7901042F182F60E9E9
:1013800071E0C6010E944E09D5011496CD91DC9101
:10139000EC16FD06E0F40C171D0708F4E801D50172
:1013A000ED91FC911197EC0FFD1F108110826D9152
:1013B0007C916E0D7F1DC60161157105A1F00E9423
:1013C0007F09F50180819181C80FD91F1883C6015B
:1013D000DF91CF911F910F91FF90EF90DF90CF9011
:1013E000BF90AF9008950E940C09EBCF60E971E0C7
:1013F00085E094E00E947F09E1E0F4E0148A138A1A
:1014000015861486128A118A0895EF92FF920F931F
:101410001F93CF93DF936115710541F480E0DF9155
:10142000CF911F910F91FF90EF90089541155105B5
:10143000B1F07B01EC010C811D81040F151FB80177
:101440000E942609882351F3288139818C819D814E
:10145000B701820F931F0E948B1A1D830C8381E0BA
:10146000DECFCF92DF92EF92FF921F93CF93DF9365
:10147000CDB7DEB7A7970FB6F894DEBF0FBECDBFCE
:101480006DE971E088EB92E00E94821A892BD1F518
:101490008091A9029091AA02A091AB02B091AC02F6
:1014A00080931F0290932002A0932102B093220206
:1014B0008091AE029091AF02A091B002B091B102C2
:1014C0008093230290932402A0932502B0932602D6
:1014D0000E9434142FEF3FEF40E050E00E9443168B
:1014E0006B01709328026093270265EA71E089E23C
:1014F00092E00E948B1AC6010E9430058EE192E0B4
:101500000E9402086AEA71E088EB92E00E94821A67
:10151000892B09F084C08091A9029091AA02A09120
:10152000AB02B091AC0280931F0290932002A09373
:101530002102B09322028091AE029091AF02A0915D
:10154000B002B091B1028093230290932402A09341
:101550002502B09326020E9434142FEF3FEF40E0A3
:1015600050E00E94431670932802609327022FB721
:10157000F89460911A0270911B0280911C02909164
:101580001D022FBF1BA21AA21DA21CA21FA21EA2D7
:101590002AE0AE014F5F5F4F0E94D314BE016F5F20
:1015A0007F4FCE0182960E947F0964EB71E0CE01ED
:1015B00001960E944E094EA15FA16AA17BA1CE01B6
:1015C00001960E94050A811104C0CE0101960E9475
:1015D0000C0943E050E06DEB71E0CE0101960E94F2
:1015E000050A811104C0CE0101960E940C0969818F
:1015F0007A8189E292E00E948B1ACE0101960E94C4
:101600001E09CE0182960E941E09809127029091A8
:1016100028020E9430058EE192E00E94020861ECEF
:1016200071E088EB92E00E94821A892B09F0C6C013
:101630008091A9029091AA02A091AB02B091AC0254
:1016400080931F0290932002A0932102B093220264
:101650008091AE029091AF02A091B002B091B10220
:101660008093230290932402A0932502B093260234
:101670000E9434142FEF3FEF40E050E00E944316E9
:10168000709328026093270261E08FED93E00E943F
:101690000E04F82E40E861E88FED93E00E94890384
:1016A00040E061E88FED93E00E94890345E061E846
:1016B0008FED93E00E9489036BE38FED93E00E942E
:1016C0000E04182F40E06BEB8FED93E00E9489032E
:1016D0008BE292E00197F1F7412F41606BEB8FEDC8
:1016E00093E00E9489036CE38FED93E00E940E0467
:1016F000182F40E861E88FED93E00E9489034F2D99
:1017000061E88FED93E00E948903212F30E08FEF95
:1017100090E0821B930B17FD04C088279927821B3A
:10172000930B1BA21AA21DA21CA21FA21EA24AE07A
:10173000BE016F5F7F4F0E94B314BE016F5F7F4F8A
:10174000CE0182960E947F0969EC71E0CE0101967C
:101750000E944E094EA15FA16AA17BA1CE01019614
:101760000E94050A811104C0CE0101960E940C0955
:1017700043E050E060ED71E0CE0101960E94050A61
:10178000811104C0CE0101960E940C0969817A8101
:1017900089E292E00E948B1ACE0101960E941E09F6
:1017A000CE0182960E941E09809127029091280204
:1017B0000E9430058EE192E00E940208A7960FB6C3
:1017C000F894DEBF0FBECDBFDF91CF911F91FF9088
:1017D000EF90DF90CF9008958F929F92AF92BF923B
:1017E000CF92DF92EF92FF920F931F93CF93DF93ED
:1017F000CDB7DEB72C970FB6F894DEBF0FBECDBFC6
:101800007C018B01FB018285938521893289281710
:101810003907D8F0928B818B60E971E0C7010E9493
:101820004E09C7012C960FB6F894DEBF0FBECDBF90
:10183000DF91CF911F910F91FF90EF90DF90CF90AC
:10184000BF90AF909F908F90089560E971E0CE01B6
:1018500007960E944E095801F4E0AF0EB11CF80142
:101860008188928864ED71E0CE0101960E944E0954
:10187000F801808591858816990608F044C0C480D7
:10188000D58069817A81C601880D991D0E94A01AB0
:101890000097C9F19C012C193D096901CE010196FF
:1018A0000E941E09F80141895289FFEFCF16DF0619
:1018B00071F5F80120853185B501CE0101960E94B0
:1018C000AA09BE016F5F7F4FCE0107960E94D30821
:1018D000CE0101960E941E09F80182859385928BA4
:1018E000818BF70111821082138212821582148279
:1018F000BE01695F7F4FC7010E94D308CE010796E2
:101900000E941E098ECFCC24CA94DC2CC7CF96012E
:10191000B501CE0101960E94AA09BE016F5F7F4FFB
:10192000CE0107960E94D308CE0101960E941E099F
:10193000FFEFCF1ADF0AF801D28AC18AD2CF0F9304
:101940001F93CF93DF9300D000D000D0CDB7DEB788
:101950008C01BC01CE0101960E94EC0BCE010196D8
:101960000E94EA05CE0101960E941E09B801CE012F
:1019700001960E94EC0BCE0101960E94EA05CE0171
:1019800001960E941E0981E026960FB6F894DEBFEC
:101990000FBECDBFDF91CF911F910F9108953F9260
:1019A0004F925F926F927F928F929F92AF92BF926F
:1019B000CF92DF92EF92FF920F931F93CF93DF931B
:1019C00000D000D000D0CDB7DEB78C01BC01CE0175
:1019D00001960E94EC0BCE0101960E94C8086B0193
:1019E0007C01CE0101960E941E09B801CE0101962C
:1019F0000E94EC0BCE0101960E94C8082B013C010D
:101A0000CE0101960E941E09B801CE0101960E94E6
:101A1000EC0BCE0101960E94C8084B015C01CE017F
:101A200001960E941E09B801CE0101960E94EC0B9E
:101A3000CE0101960E94C808362ECE0101960E9462
:101A40001E09B801CE0101960E94EC0B0EE112E0D6
:101A50008091A9029091AA02A091AB02B091AC0230
:101A6000F80181839283A383B483FC2CEE24DD24CC
:101A7000CC24C328320155244424442455247724FB
:101A8000C428D528E628F728BA2CA92C982C882415
:101A9000AA24BB248C289D28AE28BF288582968244
:101AA000A782B0860E9434142FEF3FEF40E050E051
:101AB0000E944316F8017287618769817A8189E201
:101AC00092E00E948B1AC8010E940208CE01019682
:101AD0000E941E0981E026960FB6F894DEBF0FBE65
:101AE000CDBFDF91CF911F910F91FF90EF90DF90CD
:101AF000CF90BF90AF909F908F907F906F905F90AE
:101B00004F903F9008951F920F920FB60F9211249D
:101B10002F933F938F939F93AF93BF9380911A021C
:101B200090911B02A0911C02B0911D0230911402F1
:101B300023E0230F2D3758F50196A11DB11D2093E9
:101B4000140280931A0290931B02A0931C02B0937C
:101B50001D028091150290911602A0911702B0917A
:101B600018020196A11DB11D8093150290931602D3
:101B7000A0931702B0931802BF91AF919F918F91DC
:101B80003F912F910F900FBE0F901F90189526E850
:101B9000230F0296A11DB11DD2CF1F920F920FB637
:101BA0000F9211242F933F934F935F936F937F93E3
:101BB0008F939F93AF93BF93EF93FF93E0910201B5
:101BC000F09103010995FF91EF91BF91AF919F9122
:101BD0008F917F916F915F914F913F912F910F90D6
:101BE0000FBE0F901F9018951F920F920FB60F9275
:101BF00011242F933F934F935F936F937F938F9312
:101C00009F93AF93BF93EF93FF93E0910001F09107
:101C100001010995FF91EF91BF91AF919F918F9134
:101C20007F916F915F914F913F912F910F900FBED8
:101C30000F901F9018951F920F920FB60F921124BC
:101C40002F933F934F935F936F937F938F939F93C4
:101C5000AF93BF93EF93FF9388E393E00E94DF027B
:101C6000FF91EF91BF91AF919F918F917F916F9174
:101C70005F914F913F912F910F900FBE0F901F904A
:101C800018951F920F920FB60F9211242F938F93D6
:101C90009F93EF93FF93E0914803F0914903808174
:101CA000E0914E03F0914F0382FD1BC09081809123
:101CB00051038F5F8F7320915203821741F0E0919F
:101CC0005103F0E0E85CFC4F958F80935103FF9146
:101CD000EF919F918F912F910F900FBE0F901F90BA
:101CE00018958081F4CF10923B0310923A0388EE4E
:101CF00093E0A0E0B0E080933C0390933D03A09379
:101D00003E03B0933F038EE691E0909339038093B6
:101D1000380385EC90E0909345038093440384EC72
:101D200090E0909347038093460380EC90E090937B
:101D300049038093480381EC90E090934B03809398
:101D40004A0382EC90E090934D0380934C0386EC21
:101D500090E090934F0380934E03109251031092A2
:101D600052031092530310925403A5EDB3E090E098
:101D700080E021E2E1E0F0E08630910510F4F0E04F
:101D8000E0E0AC01425F5F4FE40FF51F2093570086
:101D9000E491ED9301968930910561F71092E20389
:101DA0001092E10320E831E03093E0032093DF0359
:101DB00020E52093EB0321E02093EC032EED33E0AC
:101DC0003093EE032093ED032AE030E03093F003EC
:101DD0002093EF039093F2038093F10382E090E06D
:101DE0009093F4038093F3031092F5031092F6039B
:101DF0001092F7031092F8031092FA031092F9036D
:101E00001092FC031092FB031092FE031092FD034C
:101E1000109200041092FF031092E3031092E40367
:101E20001092E5031092E60360E971E085E094E02A
:101E30000E944E0910920C0410920B0410920E0492
:101E400010920D04109213041092120410921504B3
:101E50001092140460E971E08AE194E00C944E0958
:101E6000CF93DF93CDB7DEB7CB58D1090FB6F89437
:101E7000DEBF0FBECDBF789484B5826084BD84B5CB
:101E8000816084BD85B5826085BD85B5816085BD75
:101E900080916E00816080936E001092810080912D
:101EA00081008260809381008091810081608093B5
:101EB0008100809180008160809380008091B100DA
:101EC00084608093B1008091B00081608093B00005
:101ED00080917A00846080937A0080917A00826099
:101EE00080937A0080917A00816080937A0080915B
:101EF0007A00806880937A001092C100E0914803D4
:101F0000F091490382E08083E0914403F09145031E
:101F10001082E0914603F091470380E180831092A4
:101F20005003E0914C03F0914D0386E08083E091F3
:101F30004A03F0914B03808180618083E0914A03E2
:101F4000F0914B03808188608083E0914A03F09197
:101F50004B03808180688083E0914A03F0914B03BA
:101F600080818F7D808381EA91E00E94CE0580E4AC
:101F700080937C0080917A00806480937A008091C5
:101F80007A0086FDFCCF6091780070917900072E71
:101F9000000C880B990B611571058105910511F0F5
:101FA0000E9483148AE090E09093F0038093EF0303
:101FB00089E090E09093F2038093F10382E090E057
:101FC0009093F4038093F3038AE00E94850161E01B
:101FD0008091EF030E94BA018091F1039091F20386
:101FE0008F3F9807C1F00E94850160E08091F10366
:101FF0000E94BA016AE070E080E090E00E942B024B
:1020000061E08091F1030E94BA016AE070E080E033
:1020100090E00E942B021FB7F8948091000281117A
:1020200024C0E3E9F2E08491E7EAF2E09491E82F3A
:10203000F0E0EE0FFF1FE158FD4FA591B491EC9138
:10204000E92321F461E08AE00E94BA018AE00E945B
:1020500085018CB580618CBD8CB580648CBD8DE0B4
:102060000E9485018BE00E948501809100028F5FB4
:10207000809300021FBF62E48FED93E00E940E0484
:10208000823129F08BE791E00E94CE05FFCF40E836
:1020900061E88FED93E00E94890360E07DE089E9CB
:1020A00096E30E94AE0340E06EE88FED93E00E945D
:1020B000890340E06FE88FED93E00E9489036CE0B4
:1020C0008FED93E00E940E04482F43606CE88FED83
:1020D00093E00E94890344E066EA8FED93E00E945A
:1020E000890344E86DEC8FED93E00E9489034BE295
:1020F0006BE88FED93E00E9489034FE869E88FED6C
:1021000093E00E94890341E861E88FED93E00E942B
:10211000890347E86DEC8FED93E00E94890341E36A
:102120006BE88FED93E00E9489034FE869E88FED3B
:1021300093E00E94890343EC61EB8FED93E00E94F2
:1021400089034AE067EB8FED93E00E9489036EE11B
:102150008FED93E00E940E048F70482F406A6EE965
:102160008FED93E00E9489030E9411046DE18FEDD1
:1021700093E00E940E048F70482F40696DE98FED47
:1021800093E00E9489030E9411046DE18FED93E0BA
:102190000E940E04817F482F48606DE98FED93E027
:1021A0000E94890340E060EA8FED93E00E9489037A
:1021B00048E061EA8FED93E00E94890342E269EB17
:1021C0008FED93E00E9489036EE18FED93E00E9412
:1021D0000E04482F44606EE98FED93E00E9489035E
:1021E0006091DA037091DB038091DC039091DD0351
:1021F0000E94F5176093A9027093AA028093AB0224
:102200009093AC0288E393E09093190480931804B0
:102210008EE891E09093100480930F046FEF70E0CC
:1022200085E094E00E9426098FEF90E090930C04E3
:1022300080930B0484E091E0909304048093030462
:1022400083E090E090930204809301040E94F609D9
:1022500082E691E00E944E034AEDE42E43E0F42E24
:1022600010E000E0D7016D917D0170E090E080E02A
:102270004AE00E9401060F5F1F4F0430110509F06C
:1022800070C080E691E00E944E0387E491E00E94D6
:10229000CE052E01BCE84B0E511C30E0632E30E021
:1022A000732E8091180490911904892B09F458C158
:1022B0008091180490911904DC01ED91FC91008447
:1022C000F185E02D0995181619060CF049C1809189
:1022D000180490911904DC01ED91FC910284F385BE
:1022E000E02D09958C011816190614F720910D049C
:1022F00030910E0480910B0490910C04281739073B
:1023000008F02CC10D30B1F00A30A1F009831A8217
:1023100041E050E0BE016F5F7F4F85E094E00E9496
:10232000050A80910D0490910E04019690930E047D
:1023300080930D0420910F043091100480911404B7
:1023400090911504F901E80FF91F4081042E000C4B
:10235000550B0417150761F0109215041092140420
:10236000A7CF66ED71E088E393E00E94BF057ACFC6
:1023700001969093150480931404820F931FFC011F
:102380008081811195CF80910D0490910E04892B4D
:10239000E9F41092170410921604E0911604F091DB
:1023A0001704309781F081E094E00995209118049A
:1023B0003091190461EE71E0811102C06BED71E0A2
:1023C000C9010E94EE070E94F60972CF68ED71E024
:1023D000CE0101960E944E094D815E8180910904D3
:1023E00090910A048417950780F0809105049091DC
:1023F0000604009751F069817A816115710529F011
:102400000E94921A11E0892B09F010E0CE0101968A
:102410000E941E09112309F499C002E010E0809186
:102420000B0490910C040817190708F03FC0C8016D
:102430000E94A401DC018C918823B1F1C8010E94A3
:10244000A401FC01808190ED980F9A3070F08B32DE
:1024500061F09DED980F923040F08F3531F08D3363
:1024600021F08F538C3108F071C0C8010E94A40183
:10247000DC018C918D3369F4C80101960E94A4019E
:10248000FC01808122E0322E8F3381F0332433949B
:102490000DC0C8010E94A401DC018C918F3309F4A6
:1024A00043C00F5F1F4FBBCF93E0392E980142E02E
:1024B00050E065E074E0CE0101960E94AA09BE01D9
:1024C0006F5F7F4F8AE194E00E94D308CE010196AE
:1024D0000E941E0930921104A0900104B0900204E1
:1024E000E0900304F090040480901E0490901F0478
:1024F000C0901A04D0901B04212C2A141B0420F530
:10250000F701BAE02B9EE00DF11D1124608171816D
:102510008114910459F46115710599F0FB018081D2
:10252000882379F02394E9CF312CC0CF6115710550
:1025300019F4D6018C91F4CFC6010E94821A892B1E
:1025400089F7BFEF2B122DC00E94F6096BED71E0E9
:1025500080911804909119040E94EE070E94F609D8
:102560000E946E05882389F08BE292E00E94CE05DE
:102570008FED93E00E94B304049709F45EC060E01D
:102580007DE089E996E30E94AE036114710409F4C9
:1025900088CE0E94CB02882309F483CE0E940000DB
:1025A0007CCEE22DFAE0EF026001112422E0321627
:1025B000E9F133E0331649F181E0381231C020915E
:1025C0000B0430910C042F5F3F4F201B310BA801EF
:1025D0004F5F5F4F65E074E0CE0101960E94AA094B
:1025E000BE016F5F7F4F85E094E00E94D308CE016B
:1025F00001960E941E09E0900304F0900404CE0CA2
:10260000DF1CF6018085918506C0EC0CFD1CD7010E
:1026100012968D919C919093170480931604BDCED1
:10262000EC0CFD1CF70186819781F5CFEC0CFD1CAD
:10263000D70114968D919C91EECF8FED93E00E947F
:10264000B304892B09F09BCF8FED93E00E94B30474
:102650008C018FED93E00E94B304F82E8FED93E090
:102660000E94B30400931102F092120280931302AD
:102670008091120290911302E1E0F2E021913191F8
:102680008217930709F497C021E132E02E173F0724
:10269000A9F7F801FF27EE0FFF1FEE0FFF1FE45D04
:1026A000FE4F60817181828193810E94AE038FB75A
:1026B000F894C0901A02D0901B02E0901C02F09097
:1026C0001D028FBFF0EDCF0EF7E0DF1EE11CF11C05
:1026D0000E946E05892B89F42FB7F89480911A0215
:1026E00090911B02A0911C02B0911D022FBF8C156E
:1026F0009D05AE05BF0560F342CF8FED93E00E94CC
:10270000B304049709F03BCF8FED93E00E94B3042C
:10271000019709F034CF8E010F5F1F4F78018FEDC5
:1027200093E00E94B304D8018D938D01A415B505E3
:10273000B1F78BE8F701ADEAB2E001900D928A950E
:10274000E1F760E07DE089E996E30E94AE038091C5
:10275000B2029091B302A091B402B091B50240913F
:10276000A9025091AA026091AB027091AC02841749
:102770009507A607B70729F40E9447060E94310A69
:10278000FECE8F3F9F4FAF4FBF4F91F40E94470641
:102790000E94310A87EE91E00E94CE058091AD0241
:1027A0008F5F8093AD028DEA92E00E940208E7CE2F
:1027B0008BEB91E0F1CF87E192E00E94CE05DFCE76
:1027C0008AE194E00E941E0985E094E00C941E09C1
:1027D0008F929F92AF92BF92CF92DF92EF92FF9231
:1027E000CF93DF93EC01688179818A819B816115A8
:1027F00071058105910521F464E279ED8BE597E09F
:102800002DE133EF41E050E00E94431649015A01A7
:102810009B01AC01A7EAB1E40E9462166B017C0146
:10282000ACEEB4EFA50194010E947016C60ED71E3F
:10283000E81EF91EF7FE06C081E0C81AD108E108BB
:1028400080E8F80AC882D982EA82FB82C701B60111
:102850009F77DF91CF91FF90EF90DF90CF90BF9067
:10286000AF909F908F9008958F929F92AF92BF925A
:10287000CF92DF92EF92FF9260912201709123013B
:1028800080912401909125016115710581059105C3
:1028900021F464E279ED8BE597E02DE133EF41E03F
:1028A00050E00E94431649015A019B01AC01A7EA7E
:1028B000B1E40E9462166B017C01ACEEB4EFA5019D
:1028C00094010E947016C60ED71EE81EF91EF7FE70
:1028D00006C081E0C81AD108E10880E8F80AC09271
:1028E0002201D0922301E0922401F0922501C70138
:1028F000B6019F77FF90EF90DF90CF90BF90AF90A1
:102900009F908F900895609322017093230180938C
:1029100024019093250108951F93FC01992788278E
:10292000BC01E89411911032E9F3193010F01E3017
:10293000C8F31B3251F01D3249F4689406C00E945E
:10294000BE14610F711D811D911D119110531A301C
:10295000B0F33EF490958095709561957F4F8F4FC1
:102960009F4F1F910895BB274A3031F4992322F4D9
:10297000BDE2909581959F4F0C94F614592F482FE6
:10298000372F262F660F771F881F991F660F771F17
:10299000881F991F620F731F841F951F660F771F73
:1029A000881F991F0895BB27FA01A62F621771058A
:1029B00081059105330B30FB66F0AA27660F771F60
:1029C000881F991FAA1FA21710F0A21B63953850E9
:1029D000A9F7A05DAA3308F0A95DA19336F7B1115C
:1029E000B1931082CA010C940F15BB27FB01552728
:1029F000AA27880F991FAA1FA41710F0A41B83955C
:102A00005051B9F7A05DAA3308F0A95DA1930097D2
:102A100079F7B111B1931192CB010C940F15DC0130
:102A2000FC01672F71917723E1F7329704C07C9105
:102A30006D9370836291AE17BF07C8F308950E942B
:102A4000611508F481E00895E89409C097FB3EF40D
:102A500090958095709561957F4F8F4F9F4F9923EB
:102A6000A9F0F92F96E9BB279395F6958795779569
:102A70006795B795F111F8CFFAF4BB0F11F460FF29
:102A80001BC06F5F7F4F8F4F9F4F16C0882311F081
:102A900096E911C0772321F09EE8872F762F05C095
:102AA000662371F096E8862F70E060E02AF09A9530
:102AB000660F771F881FDAF7880F9695879597F925
:102AC0000895990F0008550FAA0BE0E8FEEF1616BF
:102AD0001706E807F907C0F012161306E407F50712
:102AE00098F0621B730B840B950B39F40A2661F086
:102AF000232B242B252B21F408950A2609F4A14029
:102B0000A6958FEF811D811D08950E9498150C9444
:102B100009160E94FB1538F00E94021620F095233A
:102B200011F00C94F2150C94F81511240C943D1628
:102B30000E941A1670F3959FC1F3950F50E0551F30
:102B4000629FF001729FBB27F00DB11D639FAA2702
:102B5000F00DB11DAA1F649F6627B00DA11D661F51
:102B6000829F2227B00DA11D621F739FB00DA11D72
:102B7000621F839FA00D611D221F749F3327A00D2C
:102B8000611D231F849F600D211D822F762F6A2FC8
:102B900011249F5750409AF0F1F088234AF0EE0F2D
:102BA000FF1FBB1F661F771F881F91505040A9F75A
:102BB0009E3F510580F00C94F2150C943D165F3F3A
:102BC000E4F3983ED4F3869577956795B795F79596
:102BD000E7959F5FC1F7FE2B880F911D969587950E
:102BE00097F9089597F99F6780E870E060E008958D
:102BF0009FEF80EC089500240A9416161706180615
:102C00000906089500240A941216130614060506F0
:102C10000895092E0394000C11F4882352F0BB0F81
:102C200040F4BF2B11F460FF04C06F5F7F4F8F4FE4
:102C30009F4F089557FD9058440F551F59F05F3F1F
:102C400071F04795880F97FB991F61F09F3F79F0CE
:102C500087950895121613061406551FF2CF469550
:102C6000F1DF08C0161617061806991FF1CF8695D2
:102C70007105610508940895E894BB2766277727B6
:102C8000CB0197F90895052E97FB1EF400940E943E
:102C90005A1657FD07D00E94AC1607FC03D04EF41D
:102CA0000C945A1650954095309521953F4F4F4FB3
:102CB0005F4F089590958095709561957F4F8F4FE8
:102CC0009F4F08950E94CE16A59F900DB49F900D22
:102CD000A49F800D911D11240895B7FF0C946216D6
:102CE0000E946216821B930B08952F923F924F927F
:102CF0005F926F927F928F929F92AF92BF92CF928C
:102D0000DF92EF92FF920F931F93CF93DF93CDB794
:102D1000DEB7CA1BDB0B0FB6F894DEBF0FBECDBF0C
:102D200009942A88398848885F846E847D848C84DD
:102D30009B84AA84B984C884DF80EE80FD800C81E6
:102D40001B81AA81B981CE0FD11D0FB6F894DEBFC9
:102D50000FBECDBFED010895A1E21A2EAA1BBB1B29
:102D6000FD010DC0AA1FBB1FEE1FFF1FA217B30757
:102D7000E407F50720F0A21BB30BE40BF50B661F6D
:102D8000771F881F991F1A9469F760957095809531
:102D900090959B01AC01BD01CF010895A29FB001A8
:102DA000B39FC001A39F700D811D1124911DB29F7F
:102DB000700D811D1124911D08955058BB27AA271D
:102DC0000E94F5160C9409160E94FB1538F00E941B
:102DD000021620F039F49F3F19F426F40C94F815EC
:102DE0000EF4E095E7FB0C94F215E92F0E941A16F9
:102DF00058F3BA17620773078407950720F079F430
:102E0000A6F50C943C160EF4E0950B2EBA2FA02DCF
:102E10000B01B90190010C01CA01A0011124FF2787
:102E2000591B99F0593F50F4503E68F11A16F04082
:102E3000A22F232F342F4427585FF3CF4695379581
:102E40002795A795F0405395C9F77EF41F16BA0B46
:102E5000620B730B840BBAF09150A1F0FF0FBB1FF4
:102E6000661F771F881FC2F70EC0BA0F621F731F3D
:102E7000841F48F4879577956795B795F7959E3F9A
:102E800008F0B0CF9395880F08F09927EE0F97952B
:102E9000879508950E945E170C9409160E940216E9
:102EA00058F00E94FB1540F029F45F3F29F00C9484
:102EB000F21551110C943D160C94F8150E941A1637
:102EC00068F39923B1F3552391F3951B550BBB2759
:102ED000AA2762177307840738F09F5F5F4F220F9E
:102EE000331F441FAA1FA9F335D00E2E3AF0E0E895
:102EF00032D091505040E695001CCAF72BD0FE2FDF
:102F000029D0660F771F881FBB1F26173707480772
:102F1000AB07B0E809F0BB0B802DBF01FF2793582A
:102F20005F4F3AF09E3F510578F00C94F2150C94E7
:102F30003D165F3FE4F3983ED4F386957795679509
:102F4000B795F7959F5FC9F7880F911D969587955F
:102F500097F90895E1E0660F771F881FBB1F62177E
:102F600073078407BA0720F0621B730B840BBA0B3C
:102F7000EE1F88F7E09508950E94221688F09F576B
:102F800098F0B92F9927B751B0F0E1F0660F771F8D
:102F9000881F991F1AF0BA95C9F714C0B13091F083
:102FA0000E943C16B1E008950C943C16672F782FD0
:102FB0008827B85F39F0B93FCCF386957795679548
:102FC000B395D9F73EF490958095709561957F4FB4
:102FD0008F4F9F4F08950E94611508F48FEF089559
:102FE0000E946115880B990B089569279627692718
:102FF0007827872778270895689401C0E8948F92EE
:103000009F92CF93DF930E940A18DF91CF919F90F8
:103010008F90089588249924F401E401B0E49F93EB
:10302000AA279A158B049C04ED05FE05CF05D00751
:10303000A10798F4AD2FDC2FCF2FFE2FE92D982C70
:10304000892E982F872F762F652F542F432F322FBD
:103050002227B85031F7BF9127C01B2EBF91BB2745
:10306000220F331F441F551F661F771F881F991F8C
:10307000881C991CEE1FFF1FCC1FDD1FAA1FBB1F42
:103080008A149B04EC05FD05CE05DF05A007B107FA
:1030900048F08A189B08EC09FD09CE09DF09A00B4E
:1030A000B10B21601A94E1F62EF49401AF01BE0138
:1030B000CD01000C0895002E083090F0982F872F36
:1030C000762F652F542F432F322F22270850F4CF0D
:1030D000220F331F441F551F661F771F881F991F1C
:1030E0000A95B2F7002D089597FD1094002E083030
:1030F00098F00850232F342F452F562F672F782F05
:10310000892F912DF4CF159497958795779567958D
:1031100057954795379527950A95AAF71124002DBD
:103120000895EE0FFF1F0590F491E02D09940F9381
:103130001F93CF93DF938230910510F482E090E0EB
:10314000E0912204F091230430E020E0B0E0A0E020
:10315000309799F42115310509F44AC0281B390B21
:1031600024303105D8F58A819B816115710589F17B
:10317000FB0193838283FE0111C040815181028152
:10318000138148175907E0F04817590799F4109729
:1031900061F012960C93129713961C933296CF01FE
:1031A000DF91CF911F910F91089500932204109306
:1031B0002304F4CF2115310551F04217530738F09D
:1031C000A901DB019A01BD01DF01F801C1CFEF01C7
:1031D000F9CF9093230480932204CDCFFE01E20F18
:1031E000F31F819391932250310939832883D7CFDC
:1031F0002091200430912104232B41F420912801B7
:10320000309129013093210420932004209126013C
:10321000309127012115310541F42DB73EB740917A
:103220002A0150912B01241B350BE0912004F091D1
:103230002104E217F307A0F42E1B3F0B28173907D0
:1032400078F0AC014E5F5F4F2417350748F04E0F02
:103250005F1F5093210440932004819391939FCF4B
:10326000F0E0E0E09CCFCF93DF930097E9F0FC0122
:10327000329713821282A0912204B0912304ED01AF
:1032800030E020E01097A1F420813181820F931F5C
:1032900020912004309121042817390709F061C0DA
:1032A000F0932104E0932004DF91CF910895EA0187
:1032B000CE17DF07E8F54A815B819E014115510574
:1032C000B1F7E901FB83EA8349915991C40FD51FF6
:1032D000EC17FD0761F4808191810296840F951FA0
:1032E000E90199838883828193819B838A83F0E0BB
:1032F000E0E012968D919C9113970097B9F52D916E
:103300003C911197CD010296820F931F20912004CA
:10331000309121042817390739F6309751F510926A
:10332000230410922204B0932104A0932004BCCF64
:10333000D383C28340815181840F951FC817D90759
:1033400061F44E5F5F4F88819981480F591F518307
:1033500040838A819B81938382832115310509F003
:10336000B0CFF0932304E09322049ECFFD01DC0153
:10337000C0CF13821282D7CFB0E0A0E0E2ECF9E137
:103380000C9477168C01009751F4CB010E9497188A
:103390008C01C801CDB7DEB7E0E10C949316FC01B7
:1033A000E60FF71F9C0122503109E217F30708F4DA
:1033B0009DC0D901CD91DC911197C617D70798F020
:1033C000C530D10530F3CE0104978617970708F36F
:1033D000C61BD70B2297C193D1936D937C93CF01DA
:1033E0000E943319D6CF5B01AC1ABD0A4C018C0E7A
:1033F0009D1EA0912204B0912304512C412CF12C4C
:10340000E12C109731F580912004909121048815CA
:10341000990509F05CC04616570608F058C080911F
:10342000260190912701009741F48DB79EB74091F6
:103430002A0150912B01841B950BE817F90708F01E
:1034400055C0F0932104E0932004F9017183608357
:10345000A0CF8D919C91119712966C901297139614
:103460007C901397A815B90559F56C0142E0C40E7C
:10347000D11CCA14DB0420F1AC014A195B09DA0142
:103480001296159780F06282738251834083D9012E
:103490006D937C93E114F10471F0D7011396FC93C2
:1034A000EE93129776CF22968C0F9D1FF901918390
:1034B0008083F301EFCFF0932304E093220469CFDC
:1034C0004816590608F42C017D01D3019ACFCB018F
:1034D0000E9497187C01009749F0AE01B8010E9444
:1034E000791AC8010E943319870153CF10E000E018
:1034F00050CFFB01DC0102C001900D9241505040C1
:10350000D8F70895FB01DC018D910190801901101D
:10351000D9F3990B0895FB01DC0101900D92002075
:10352000E1F70895FB01DC014150504030F08D91EE
:103530000190801919F40020B9F7881B990B0895A0
:10354000FB0151915523A9F0BF01DC014D914517B5
:103550004111E1F759F4CD010190002049F04D915E
:1035600040154111C9F3FB014111EFCF81E090E01B
:103570000197089511E0CAE5D1E004C0FE010E9460
:0E35800091182196CB35D107C9F7F894FFCFEB
:10358E0060026002E401DE05E405E405E405EA01FB
:10359E00E405E405E405CF0CF001E405E405E405DB
:1035AE009F0C01000000000024048000000D9936DD
:1035BE00C034A236805CAB364084B43600ACBD3627
:1035CE00C0D3C63680FBCF364023D936781E00A036
:1035DE002800F03C00405100127A00E4A20024F4CE
:1035EE000048E80190D00320A1070000000001036D
:1035FE0061028E026903BF029D02B102000000004B
:10360E001705DC042D055E02CE04B3048D040D0AED
:10361E00006E616E00696E66006F76660041542B17
:10362E0050494E4700504F4E470041542B55505471
:10363E00494D4500555054494D453A2000204D53B3
:10364E000041542B54454D500054454D503A2000E6
:10365E00C2B043002C002E004154004552524F522E
:10366E00004F4B002B48454C50002B53454E440009
:0C367E002B53454E444259544553000064
:00000001FF
